:020000040800F2
:100000000004002047010008F1010008F301000886
:10001000F7010008FB010008FF01000800000000D4
:1000200000000000000000000000000003020008C3
:10003000050200080000000007020008090200088D
:1000400067010008670100086701000867010008F0
:1000500067010008670100086701000867010008E0
:1000600067010008670100086701000867010008D0
:1000700067010008670100086701000867010008C0
:1000800067010008670100080B020008670100080B
:1000900067010008670100086701000867010008A0
:1000A0006701000867010008670100086701000890
:1000B00067010008D30B000867010008670100080A
:1000C0006701000867010008670100086701000870
:1000D0006701000867010008670100086701000860
:1000E0006701000867010008670100086701000850
:1000F0006701000867010008670100086701000840
:10010000670100086701000867010008670100082F
:10011000670100086701000867010008670100081F
:10012000670100086701000867010008670100080F
:10013000DFF80CD002F0C0FD004800477501000850
:10014000F0020020704708488047084981F308887A
:1001500007480047FEE7FEE7FEE7FEE7FEE7FEE7AB
:10016000FEE7FEE7FEE7FEE745010008F00200209B
:100170003101000890B04021684602F07BFD00F09C
:10018000C1FD482000F05EF900F08AFA00F025F980
:1001900041F61F4142F20F7000F0EEFC00F036F81D
:1001A00000F03AF815E00B480078012802D1002051
:1001B00008490870084800F033F80446002C07DDB1
:1001C000054803780548028805A1684602F096FDB7
:1001D00000BFE8E704000020700000200E000020AF
:1001E000CAD5B5BD20256420205345432025640091
:1001F000704700BFFEE700BFFEE700BFFEE700BF9D
:10020000FEE77047704770477047704710B500F0C1
:1002100083F900F0DBFB10BD10B500F0D7FB10BD7B
:1002200070B5054600244FF48061214801F0CDF8F7
:1002300028B1204800F0F8FB0446FFF7EDFF002C42
:1002400004DD1D480088401C1B490880204670BD05
:100250002DE9F04107460D4600260024284600F00F
:1002600012FC06462946384600F047FC064600BF09
:1002700005E01248015D12A002F030FD641C402C24
:10028000F7DB0A2000F039F9FFF7C6FF002E04DD86
:100290000C480088401C0B4908800A4800886328E5
:1002A00002DD002007490880F0B2BDE8F0810000BF
:1002B000000C0140700000200E00002030000020E3
:1002C000256400000C00002000B587B04FF41650E4
:1002D00003900020ADF81000ADF81200ADF8140046
:1002E000ADF818000C20ADF816000020ADF80400A1
:1002F000ADF806004FF40070ADF808000020ADF82E
:100300000A0001A9434801F09DF903A9414801F001
:1003100042F901213F4801F0ACF907B000BD08B532
:100320004FF40070ADF8000018208DF80300032092
:100330008DF802006946384800F0B4FF4FF4806041
:10034000ADF8000004208DF803006946324800F043
:10035000A9FF08BD10B500214FF0006000F033FD8B
:1003600010BD10B500F066FD4FF4803000F081FD47
:1003700000F0BEFD2949087008460078012826D102
:10038000002000F0FAFD002000F009FE4FF480602C
:1003900000F0FCFD022001F06DFA102001F07EFA61
:1003A0004FF4E0114FF4803000F0CAFD012000F05E
:1003B000D3FD00BF392000F07FFD0028FAD00220D5
:1003C00000F0CDFD00BF00F0D3FD0828FBD10121D6
:1003D00044F2040000F09AFE10BD10B5FFF7C1FF13
:1003E000FFF7B8FFFFF79BFFFFF76EFF0CA002F0CF
:1003F00075FC10BD70B504460D46E1B2054801F02C
:10040000A0F900BF4021034801F0F2F90028F9D01B
:10041000204670BD00380140000801401000002057
:100420000D0A20202D2D2D2D2D2D2D2D2D2D2D2D59
:100430002D2D2D2D2D2D2D2D2D2D2D2D2D2D200D19
:100440000A0000004FF0E021096921F004014FF09B
:10045000E0221161C21700EB5272C2F3C7022C4BAB
:100460001A701946097801EB4102C2EBC1114FF62F
:10047000FF7202EAC101274A1180704700EB800237
:10048000510000BF0A1EA1F10101FBD1204A1278E0
:1004900042434FF0E0235A6100229A6101221A611F
:1004A00000BF4FF0E022116901F001021AB101F41E
:1004B0008032002AF5D000224FF0E0231A619A61C1
:1004C00070470146134A12884A434FF0E0235A61AD
:1004D00000229A6101221A6100BF4FF0E0221069E8
:1004E00000F001021AB100F48032002AF5D0002297
:1004F0004FF0E0231A619A61704742F2107200FBDC
:1005000002F100BF0A1EA1F10101FBD170470000FA
:10051000120000201400002000B587B02B4801F025
:100520003FFC0121082000F0F1FD0121880300F0CB
:10053000FAFD4FF46040ADF8040018208DF8070074
:1005400003208DF8060001A9214800F0ABFE002031
:10055000ADF808004FF48270ADF80A000020ADF845
:100560000C00ADF80E00ADF810004FF40070ADF8BF
:1005700012003820ADF814000020ADF81600072056
:10058000ADF8180002A9114801F036FC01210F480E
:1005900001F0CFFC07B000BD10B5044600BF02213A
:1005A0000A4801F04AFD0028F9D02146074801F029
:1005B000F1FC00BF0121054801F03FFD0028F9D002
:1005C000024801F0E9FCC0B210BD00000038004054
:1005D000000C014008B50121082000F097FD032020
:1005E000ADF8000010208DF8030003208DF8020004
:1005F0006946534800F056FE08BD08B52020ADF806
:10060000000014208DF8030001208DF802006946D7
:100610004C4800F047FE4020ADF8000014208DF853
:10062000030001208DF802006946464800F03AFEBA
:1006300008BD08B54FF48070ADF8000003208DF8B8
:10064000020010208DF8030069463E4800F02AFEA3
:100650004FF48050ADF8000003208DF80200102008
:100660008DF803006946364800F01CFE4FF48060A8
:10067000ADF8000004208DF803006946304800F012
:1006800011FE4FF40060ADF8000003208DF8020069
:1006900010208DF803006946294800F003FE08BDCC
:1006A00008B50121042000F031FD0121082000F0EF
:1006B0002DFD0121102000F029FD0320ADF80000E0
:1006C0008DF8020010208DF8030069461C4800F0E8
:1006D000E9FD0320ADF800008DF8020048208DF8F8
:1006E00003006946174800F0DDFD4FF40050ADF8F7
:1006F000000003208DF8020048208DF803006946B1
:10070000114800F0CFFD4FF47870ADF800000320E1
:100710008DF8020010208DF803006946084800F0AB
:10072000C1FDFFF757FFFFF768FFFFF782FF0121C9
:10073000042000F0EBFC0121082000F0E7FC08BDDC
:10074000000C01400008014000100140704710B546
:10075000044600BF0221FE4801F06FFC0028F9D0DA
:100760002146FB4801F016FC00BF0121F84801F0CA
:1007700064FC0028F9D0F64801F00EFCC0B210BDB0
:1007800010B5FF20FFF7E3FF10BD70B504464FF42E
:100790008051F04800F035FE04F07F00FFF7D7FFEE
:1007A000FFF7EEFF05464FF48051EA4800F027FEC0
:1007B000284670BD10B5044644F400444FF48051FF
:1007C000E44800F01EFE2012FFF7C1FFE0B2FFF781
:1007D000BEFF4FF48051DF4800F011FE10BD2DE93F
:1007E000F04106460F461546012D01DCBDE8F081BB
:1007F0004FF48051D74800F004FE06F07F00FFF769
:10080000A6FF002405E0FF20FFF7A1FF3855601C7C
:10081000C4B2AC42F7DB4FF48051CE4800F0EFFD9C
:1008200000BFE3E72DE9F04105460E4617464FF4B9
:100830008051C84800F0E5FD45F08000FFF787FFD4
:10084000002404E0305DFFF782FF601CC4B2BC42AC
:10085000F8DB4FF48051BF4800F0D1FDBDE8F081D6
:1008600010B540F20910FFF7A5FF10BD10B54FF409
:100870008470FFF79FFF10BD10B54FF4C470FFF7F1
:1008800099FF10BD10B541F2FF20FFF793FF10BD97
:1008900070B506464FF48071AF4800F0B2FD4FF4DA
:1008A0000061AC4800F0ADFD642404E00A20FFF7CD
:1008B000E5FD601EC4B2002CF8D14FF48071A6484B
:1008C00000F09DFD4FF40061A24800F098FDFA246D
:1008D00004E00A20FFF7D2FD601EC4B2002CF8D15C
:1008E000FFF7C4FFFA2404E00120FFF7C7FD601EF4
:1008F000C4B2002CF8D1FFF7BFFF4220FFF745FF3D
:10090000054600BF06E0954931F81400FFF752FF95
:10091000601CC4B2032CF6DB91490888FFF74AFF3C
:1009200040F60B30FFF746FF40F62340FFF742FF4B
:100930008C48C078062823D18B4989794FF4E85236
:1009400002EB011101F10900FFF734FF8549C97875
:100950004FF4F05202EB0111C81CFFF72BFF3120BE
:10096000FFF713FF054605F0F80545F0050505F509
:100970004450FFF71FFF43F20C70FFF71BFF12E01C
:10098000794989794FF4E85202EB011101F108002D
:10099000FFF710FF7349C9784FF4F05202EB0111D1
:1009A000C81CFFF707FF41F6FF70FFF703FF4FF486
:1009B0000050FFF7FFFE42F20C10FFF7FBFE44F27F
:1009C0000110FFF7F7FEFFF74BFF70BD10B50020D9
:1009D000FFF75EFF44F68450FFF7ECFE42F2FF4063
:1009E000FFF7E8FE44F20100FFF7E4FE41F23F109A
:1009F000FFF7E0FEFFF746FF42F21520FFF7DAFEB1
:100A00000F20FFF7C2FE044604F55060FFF7D2FE48
:100A100040F20D10FFF7CEFE10BD10B51820FFF705
:100A2000B4FE0446204610BD2DE9F04105460026DF
:100A300003E00020A855701CC6B2202EF9DB102060
:100A4000FFF7A3FE074607F55060FFF7B3FE01204E
:100A5000FFF714FD4348C078062801D1152403E0B0
:100A60001320FFF792FE04464048047022462946B0
:100A70000020FFF7B4FEFFF705FF0120FFF7FEFCA3
:100A80002046BDE8F0812DE9F04104460027002012
:100A9000FFF7FEFE4FF47A70FFF7F0FC44F6875044
:100AA000FFF788FE4FF41050FFF784FE44F2410038
:100AB000FFF780FEFFF7E6FE41F2F710FFF77AFE40
:100AC00004F50850FFF776FE0E20FFF75EFE06469F
:100AD00006F55060FFF76EFE0BE02220FFF755FE93
:100AE0000546A54200D105E0032F02DB0020BDE84A
:100AF000F081F2E700BF2046F9E770B505460C46E5
:100B00000026224629460020FFF78CFE40F20B10FB
:100B1000FFF750FE09E0701C80B20646B0F57A7F00
:100B200000DD09E00120FFF7CCFC4FF480610948AB
:100B300000F04BFC0028EED000BF1220FFF725FE8E
:100B4000FFF7A0FEFFF78CFEB6F57A7F12DD0FE00F
:100B500000380040000C014000080140A22E0008AF
:100B6000A82E0008B02E0008B62E0008160000209F
:100B7000002070BD2046FCE77FB505460C460121EC
:100B8000022000F0D0FAADF80850ADF80440002083
:100B9000ADF80A00ADF8060001A91D4801F0EBFA16
:100BA000012241211A4801F087FD1D208DF8000027
:100BB00000208DF8010003208DF8020001208DF83F
:100BC0000300684600F0CDF80121114801F059FDFD
:100BD0007FBD10B501210E4802F031F8B8B10121F6
:100BE0000B4802F03DF80B480088401C094908807A
:100BF00009480088401C08490880012007490870FE
:100C0000044800883C2802DB00200249088010BD0F
:100C1000000400400200002000000020040000202A
:100C20000CB50020019000904748006840F48030E7
:100C30004549086000BF4448006800F40030009057
:100C40000198401C0190009818B90198B0F5A06F68
:100C5000F1D13D48006800F4003010B1012000904F
:100C600001E0002000900098012844D13748006836
:100C700040F01000354908600846006820F0030085
:100C800008600846006840F0020008602E4840688E
:100C90002D4948600846406848600846406840F46E
:100CA000806048600846406820F47C104860084630
:100CB000406840F4E81048600846006840F08070E2
:100CC000086000BF2048006800F000700028F9D0DC
:100CD0001D48406820F003001B49486008464068F2
:100CE00040F00200486000BF1748406800F00C0068
:100CF0000828F9D101E000BFFEE70CBD10B5FFF7F1
:100D00008FFF10BD10B51048006840F001000E497B
:100D10000860084640680E4908400B49486008468C
:100D200000680C490840084908600846006820F43B
:100D3000802008600846406820F4FE0048600020DB
:100D40008860FFF7DBFF10BD00100240002002406A
:100D50000000FFF8FFFFF6FE31490143314A116000
:100D6000704770B5002100230F22C47804B32D4CC6
:100D7000246804F4E064C4F5E064210AC1F10403CA
:100D8000CA40447804FA03F18478144021430901ED
:100D9000254C0678A155047804F01F050124AC40C9
:100DA00005786D11AD0005F1E025C5F8004109E0B9
:100DB000047804F01F050124AC401C4D0678761120
:100DC00045F8264070BD1A4A0A400243154B1B1FC6
:100DD0001A60704739B1134A121D12680243114B51
:100DE0001B1D1A6006E00F4A121D126882430D4B4C
:100DF0001B1D1A607047042808D14FF0E0210969D3
:100E000041F004014FF0E022116107E04FF0E021D2
:100E1000096921F004014FF0E022116170470000E0
:100E20000000FA050CED00E000E400E080E100E0E5
:100E300080FFFF1FDE48006840F00100DC490860C9
:100E400008464068DB490840D949486008460068C0
:100E5000D9490840D64908600846006820F4802037
:100E600008600846406820F4FE0048600020886062
:100E70007047CF49096821F48031CD4A116011468D
:100E8000096821F480211160B0F5803F03D0B0F5EE
:100E9000802F0ED106E0C649096841F48031C44A6A
:100EA000116007E0C249096841F4A021C04A1160FD
:100EB00000E000BF00BF704710B5014600220023CC
:100EC00000204A11012A02D1B94C236806E0022A07
:100ED00002D1B74C236A01E0B54C636A01F01F02EE
:100EE000012494401C400CB1012000E0002010BD02
:100EF00038B5002000900024002500BF3120FFF706
:100F0000DBFF05460098401C00901DB90098B0F525
:100F1000A06FF3D13120FFF7CFFF08B1012400E02B
:100F20000024204638BD01460020A14A106820F068
:100F3000F80040EAC10010607047A049086070479F
:100F4000024600209A4B586820F47C1042EA0103C4
:100F50001843974B58607047984908667047014698
:100F60000020934A506820F0030008435060704707
:100F70008F48406800F00C007047014600208C4A02
:100F8000506820F0F0000843506070470146002090
:100F9000874A506820F4E06008435060704701467B
:100FA0000020834A506820F4605040EAC10050603D
:100FB000704729B17E4A527A02437D4B5A7204E04F
:100FC0007B4A527A82437A4B5A7270477B49D831B6
:100FD0000860704701460020754A506820F4404080
:100FE0000843506070470021714A20321170704AE6
:100FF00082F82010012802D004280AD104E001213F
:101000006B4A2032117005E00521694A20321170C7
:1010100000E000BF00BF704769490860704764493D
:10102000096A0143624A11627047654944390860A0
:10103000704730B500210022002400235C4D6D680C
:1010400005F00C0121B1042905D0082923D105E0C0
:101050005C4D056022E05B4D05601FE0544D6D68FE
:1010600005F47012022505EB9242514D6D6805F4AE
:1010700080341CB9544D554305600BE04C4D6D68F0
:1010800005F400351DB1504D5543056002E04D4D4E
:101090005543056002E04B4D056000BF00BF444D65
:1010A0006D6805F0F0010909484D6B5C0568DD408D
:1010B00045603F4D6D6805F4E061090A434D6B5C86
:1010C0004568DD4085603A4D6D6805F46051C90A98
:1010D0003E4D6B5C4568DD40C560354D6D6805F47F
:1010E0004041890B3A4D6B5CC568B5FBF3F5056172
:1010F00030BD29B12E4A526902432D4B5A6104E09A
:101100002B4A526982432A4B5A61704729B1284AB7
:1011100092690243264B9A6104E0254A9269824310
:10112000234B9A61704729B1214AD2690243204B6F
:10113000DA6104E01E4AD26982431D4BDA617047CE
:1011400029B11B4AD2680243194BDA6004E0184AFD
:10115000D2688243164BDA60704729B1144A12698B
:101160000243134B1A6104E0114A12698243104B87
:101170001A61704712494039086070470F49C864C6
:1011800070470B49C87170470948406A40F0807049
:1011900007494862704701460020054A92680A40A4
:1011A0000AB1012000E000207047014988727047B1
:1011B000001002400000FFF8FFFFF6FE0000424270
:1011C0008004424200127A0000093D00170000200E
:1011D0002700002010B50446C649601A8C422FD063
:1011E00009DCC548204480B1B0F5806F16D0B0F559
:1011F000006F4AD11BE0B0F5806F2AD0B0F5006FC8
:1012000030D0B0F5406F40D135E001210420FFF728
:1012100097FF00210420FFF793FF37E0012108200A
:10122000FFF78EFF00210820FFF78AFF2EE0012143
:101230001020FFF785FF00211020FFF781FF25E038
:1012400001212020FFF77CFF00212020FFF778FFFD
:101250001CE001214020FFF773FF00214020FFF731
:101260006FFF13E001218020FFF76AFF002180203B
:10127000FFF766FF0AE001210802FFF761FF002186
:101280004FF48070FFF75CFF00E000BF00BF10BDAF
:1012900010B501210846FFF753FF00210120FFF799
:1012A0004FFF10BD2DE9F041024600250026002029
:1012B00000230024002791F803C00CF00F0591F8DB
:1012C00003C00CF0100CBCF1000F03D091F802C069
:1012D0004CEA050591F800C0BCF1000F31D014684C
:1012E00000202BE04FF0010C0CFA00F3B1F800C025
:1012F0000CEA03069E4220D183004FF00F0C0CFA3B
:1013000003F7BC4305FA03FC4CEA040491F803C05C
:10131000BCF1280F06D14FF0010C0CFA00FCC2F80A
:1013200014C00AE091F803C0BCF1480F05D14FF09A
:10133000010C0CFA00FCC2F810C0401C0828D1D3E4
:101340001460B1F800C0BCF1FF0F34DD5468002018
:101350002EE000F1080C4FF0010808FA0CF3B1F888
:1013600000C00CEA03069E4221D183004FF00F0C0F
:101370000CFA03F7BC4305FA03FC4CEA040491F8A9
:1013800003C0BCF1280F05D100F1080C08FA0CF8D5
:10139000C2F8148091F803C0BCF1480F07D100F1E6
:1013A000080C4FF0010808FA0CF8C2F81080401C35
:1013B0000828CED35460BDE8F0814FF6FF7101805C
:1013C000022181700421C170704702460020936899
:1013D0000B400BB1012000E00020704701468868F7
:1013E00080B2704702460020D3680B400BB1012049
:1013F00000E0002070470146C86880B27047016174
:101400007047416170470AB1016100E04161704776
:10141000C16070474FF480320A438261816182610A
:1014200082698269704702460020344B18684FF683
:101430008073184040EA02100843304B1860704730
:101440002F49C8617047F0B50A46002300240021E7
:1014500000252A4E7168C0F3034583B200F440169C
:10146000B6F5401F08D121F07061244E766826F051
:101470007066224F7E6012E000F48016B6F5801F81
:1014800006D1032606FA05F4A14341F0706106E097
:10149000460D360103FA06F6B14341F0706122B100
:1014A000460D360103FA06F63143144E7160F0BD65
:1014B00030B500228B071C0F0F2303FA04F20F4BE9
:1014C00008338C1053F8243093430C4C08348D109F
:1014D00044F8253023468C1053F824308C07240F11
:1014E00000FA04F42343054C08348D1044F82530E9
:1014F00030BD00000014014000F8FEBF00000140B4
:101500000000204210B50446D749601A8C422BD007
:1015100006DCD648204498B1B0F5806F38D119E088
:10152000B0F5806F2AD0B0F56C4F31D1012188031E
:10153000FFF706FE00214FF48040FFF701FE28E090
:1015400001214804FFF709FE00214FF40030FFF7A6
:1015500004FE1EE001218804FFF7FFFD00214FF487
:101560008020FFF7FAFD14E00121C804FFF7F5FD24
:1015700000214FF40020FFF7F0FD0AE001210805EB
:10158000FFF7EBFD00214FF48010FFF7E6FD00E0D0
:1015900000BF00BF10BD2DE9F04786B005460E46DE
:1015A0000024A24600BF00BF00272F462C8A4CF61D
:1015B000FF700440F08804432C82AC894EF6F3108F
:1015C0000440B08831890843718908430443AC81E1
:1015D000AC8A4FF6FF400440B0890443AC8201A8B6
:1015E000FFF727FDA248874202D1DDF810A001E0F5
:1015F000DDF80CA00AEBCA0000EB0A103168890084
:10160000B0FBF1F86420B8FBF0F00401200964217C
:1016100001FB1089322000EB0910B0FBF1F000F063
:101620000F0004432C8106B0BDE8F0874FF416513B
:10163000016000218180C18001810C214181002154
:101640008181704710B502460020108A4FF2FF03D7
:1016500018400B884C8823438C882343CC88234331
:101660001843108210BD0021018041808180C1801B
:10167000704721B1828942F40052828104E082895C
:101680004DF6FF731A4082817047F0B5034600247F
:101690000026002500201846C1F3421401F01F0661
:1016A000012707FA06F5012C01D10C3004E0022CC9
:1016B00001D1103000E014301AB107682F430760E1
:1016C00002E00768AF430760F0BD1AB1838A0B439D
:1016D000838202E0838A8B4383827047028A4FF6BB
:1016E000F0731A400282028A0A430282704782899A
:1016F0004FF2FF731A40828182890A4382817047C8
:1017000021B1828942F00202828104E082894FF68F
:10171000FD731A4082817047028A4FF6DF731A40C8
:101720000282028A0A430282704721B1028A42F48D
:101730008042028204E0028A4BF6FF731A40028262
:101740007047C1F308028280704701468888C0F361
:1017500008007047818941F0010181817047028B47
:10176000D2B20283028B42EA012202837047028BCB
:1017700002F47F420283028B0A430283704721B145
:10178000828A42F02002828204E0828A4FF6DF736E
:101790001A408282704721B1828A42F0100282820E
:1017A00004E0828A4FF6EF731A408282704721B1BB
:1017B000828A42F00802828204E0828A4FF6F7733E
:1017C0001A4082827047828A4FF6FB731A408282E7
:1017D000828A0A438282704721B1828A42F00202E1
:1017E000828204E0828A4FF6FD731A40828270473B
:1017F0000246002013880B400BB1012000E00020BE
:101800007047CA430280704770B502460B460024F9
:10181000002100250020C3F3421503F01F0101261B
:1018200006FA01F1012D02D19689314006E0022D20
:1018300002D1168A314001E0968A31401C120126FD
:1018400006FA04F41688344011B10CB1012000E00E
:10185000002070BD10B5002200230A12012494401C
:10186000A3B2DC43048010BD004C004000BCFFBFAD
:101870000038014001460020FB4A106800F03800A3
:10188000084310607047F849096821F00801F64ADA
:10189000116011460968014311607047F2490968F7
:1018A00021F01001F04A11601146096801431160EE
:1018B0007047EE48EC494860ED4848607047EA4898
:1018C000006940F08000E849086170470420E6495B
:1018D000C96801F0010109B101200EE0E249C968BF
:1018E00001F0040109B1022007E0DF49C96801F0F5
:1018F000100109B1032000E00420704708B5002062
:101900000090FF20009002E00098401E0090009898
:101910000028F9D108BD70B504460425FFF7D6FFAD
:10192000054605E0FFF7EAFFFFF7D0FF0546641E16
:10193000012D01D1002CF5D104B90525284670BD33
:1019400070B50546042440F6FF70FFF7E4FF044637
:10195000042C19D1C448006940F00200C249086152
:1019600008464561006940F04000086140F6FF709C
:10197000FFF7D1FF0446012C06D0BB48006941F6B1
:10198000FD710840B8490861204670BD10B50424B7
:1019900040F6FF70FFF7BFFF0446042C18D1B24891
:1019A000006940F00400B04908610846006940F051
:1019B0004000086140F6FF70FFF7ADFF0446012CC0
:1019C00006D0A948006941F6FB710840A6490861A4
:1019D000204610BD10B5042440F6FF70FFF79BFFB2
:1019E0000446042C3BD1A1489F498860A0488860E8
:1019F0000846006940F0200008610846006940F090
:101A00004000086140F6FF70FFF785FF0446042C94
:101A10001CD19548006941F6DF7108409249086180
:101A20000846006940F010000861A520914908802F
:101A30000F20FFF770FF0446012C10D08A48006980
:101A400041F6EF7108408849086108E0012C06D092
:101A50008548006941F6EF710840834908612046D6
:101A600010BD70B505460E4604240F20FFF753FF46
:101A70000446042C25D17C48006940F001007A49D5
:101A800008612E800F20FFF746FF0446042C0FD17B
:101A9000300C68800F20FFF73EFF0446012C10D069
:101AA0007148006941F6FE7108406F49086108E01D
:101AB000012C06D06C48006941F6FE7108406A4965
:101AC0000861204670BD70B505460E4604240F20FF
:101AD000FFF721FF0446042C13D16348006940F04E
:101AE0000100614908612E800F20FFF714FF0446B2
:101AF000012C06D05C48006941F6FE7108405A4945
:101B00000861204670BD70B505460E4604240F20BE
:101B1000FFF701FF0446042C17D15448524988604E
:101B2000534888600846006940F0100008612E8024
:101B30000F20FFF7F0FE0446012C06D04A4800694A
:101B400041F6EF71084048490861204670BD2DE913
:101B5000F04704464FF6FF763746B046B1460425B7
:101B6000E443E6B2C4F30727C4F307484FEA146915
:101B70000F20FFF7D0FE0546042D40D13B483A49DF
:101B800088603B4888600846006940F010000861A2
:101B9000FF2E06D03748083006800F20FFF7BBFE27
:101BA0000546042D08D1FF2F06D032480A300780A1
:101BB0000F20FFF7B0FE0546042D0AD1B8F1FF0F44
:101BC00007D02C480C30A0F800800F20FFF7A3FEB0
:101BD0000546042D0AD1B9F1FF0F07D025480E3074
:101BE000A0F800900F20FFF796FE0546012D06D0C5
:101BF0001D48006941F6EF7108401B4908612846FD
:101C0000BDE8F08770B50546042440F6FF70FFF785
:101C100082FE0446042C4AD11448134988601448B3
:101C200088600846006940F02000086108460069A5
:101C300040F04000086140F6FF70FFF76CFE04467C
:101C4000042C2BD10848006941F6DF710840064991
:101C500008610846006940F01000086165B1002085
:101C6000044908800BE00000002002402301674582
:101C7000AB89EFCD00F8FF1FA5204549088040F64D
:101C8000FF70FFF748FE0446012C10D04148006960
:101C900041F6EF7108403F49086108E0012C06D089
:101CA0003C48006941F6DF7108403A490861204626
:101CB00070BD2DE9F04107460D461646042436480E
:101CC00034498860354888600F20FFF724FE0446B9
:101CD000042C1AD12F48006940F010002D490861EA
:101CE00047EA0500304340F0F8002949891C088084
:101CF0000F20FFF710FE0446012C06D0254800698E
:101D000041F6EF710840234908612046BDE8F081A3
:101D10002048C069800870471E48006A704700204C
:101D20001C49C96901F0020109B1012000E000204D
:101D3000704700201749096801F0200109B101200E
:101D400000E00020704729B1124A12690243114B8A
:101D50001A6104E00F4A126982430E4B1A61704700
:101D600001460020012908D10A4AD26902F0010285
:101D70000AB1012008E0002006E0064AD2680A40C5
:101D80000AB1012000E0002070470249C860704796
:101D900000F8FF1F0020024023016745AB89EFCD0B
:101DA00010B50446BD48204478B1B0F5806F16D018
:101DB000B0F5784F1DD101210803FFF7C1F90021CB
:101DC0004FF48050FFF7BCF914E001218803FFF7BE
:101DD000C4F900214FF48040FFF7BFF90AE0012168
:101DE000C803FFF7BAF900214FF40040FFF7B5F937
:101DF00000E000BF00BF10BD10B50022028802F451
:101E000041520B884C8823438C882343CC8823433E
:101E10000C8923434C8923438C892343CC89234356
:101E20001A430280838B4FF2FF74234083830B8A13
:101E3000038210BD2DE9F04786B005460C464FF0F1
:101E4000000902274FF000084FF0010A0026A88B76
:101E50004FF240010840A88302202884B5F81C9066
:101E60002089022801D100BF31E0A08810B94FF0CD
:101E7000010A01E04FF0020A01A8FFF7DAF8E08852
:101E8000B0F5007F0AD1019800EB80004000218965
:101E90000902B0FBF1F0401D86B20BE04FEA4A1098
:101EA00021894843019901EB81014900B1FBF0F020
:101EB000401D86B20A20B6FBF0F606F00108A6EB3C
:101EC0000800C0F34F074FF6FF7000EA0828022F02
:101ED00001DBFF2F02DD02274FF0000847EA080070
:101EE000E18808432884208840F400606188084322
:101EF000A18808436189084340EA0909A5F81C90B4
:101F000006B0BDE8F0870021018041808180C1805A
:101F1000018141818181C1810721018270470021B6
:101F2000018041808180C1800221018100214181A5
:101F3000704721B1028842F04002028004E002882A
:101F40004FF6BF731A400280704721B1828B42F472
:101F50008062828304E0828B4FF6FF331A408283D3
:101F6000704730B5002400230C110125A540ABB209
:101F70001AB185881D43858002E085889D43858050
:101F800030BD1AB183880B43838002E083888B4382
:101F900083807047818170470146888970474FF67A
:101FA000FF62914204D0028842F48072028004E011
:101FB00002884FF6FF631A400280704721B1828881
:101FC00042F00402828004E082884FF6FB731A40DC
:101FD0008280704702884FF2FF731A4002800288A5
:101FE0000A4302807047018841F4805101807047A4
:101FF00021B1028842F40052028004E002884DF6CA
:10200000FF731A400280704702460020012901D068
:10201000108B00E0908A70470146088A7047B1F53E
:10202000804F04D1028842F48042028004E002889A
:102030004BF6FF731A400280704702460020138956
:102040000B400BB1012000E000207047CA43028121
:102050007047F0B50246002000240023002501F05F
:102060000F070126BE40B4B20B1101269E40B3B249
:10207000968806EA03051689264016B10DB101209F
:1020800000E00020F0BD10B5002201F00F04012394
:10209000A3409AB2D343038110BD000000C8FFBF24
:1020A00010B50446F749601A8C4245D00CDCB4F1F7
:1020B000804F1DD0F448204418B3B0F5806F29D06C
:1020C000B0F5006F54D12EE0B0F5806F3DD0B0F583
:1020D0008E3F03D0B0F5923F4AD13FE00121C802C4
:1020E000FFF72EF800214FF40060FFF729F840E0D9
:1020F00001210846FFF731F800210120FFF72DF8F4
:1021000037E001210220FFF728F800210220FFF725
:1021100024F82EE001210420FFF71FF800210420FD
:10212000FFF71BF825E001210820FFF716F8002132
:102130000820FFF712F81CE001211020FFF70DF82E
:1021400000211020FFF709F813E001212020FFF7FC
:1021500004F800212020FFF700F80AE001214803DD
:10216000FEF7EEFF00214FF40050FEF7E9FF00E01C
:1021700000BF00BF10BD028802F08F020280CA8833
:102180004B881A4303881A4302808A8882850A880A
:102190000285BE4A904202D0BD4A904201D10A7ADD
:1021A000028601228282704770B50024002200233B
:1021B000058C4FF6FE7635400584028C8388048BAF
:1021C0004FF68F752C400D882C43751E2A400D89C3
:1021D0002A434D882A43CD888586AC4DA84202D03B
:1021E000AB4DA84213D14FF6F7752A404D892A43CB
:1021F0004FF6FB752A408D882A4347F6FF652B4032
:1022000047F6FF552B408D892B43CD892B43838087
:102210000483028470BD70B5002400220023058C65
:102220004FF6EF7635400584028C8388048B48F6A0
:10223000FF752C400D884FF6FF7606EA05252C43E6
:102240004FF6DF752A400D8906EA05152A434D88A9
:1022500006EA05152A43CD8805878C4DA84202D091
:102260008B4DA8421DD14FF67F752A404D894FF600
:10227000FF7606EA05152A434FF6BF752A408D887A
:1022800006EA05152A4347F6FF352B4047F2FF754E
:102290002B408D8906EA85052B43CD8906EA850505
:1022A0002B4383800483028470BD70B50024002218
:1022B0000023058C4FF6FF6635400584028C838829
:1022C000848B4FF68F752C400D882C434FF6FF55AD
:1022D0002A400D894FF6FF7606EA05252A434D88E8
:1022E00006EA05252A43CD888587684DA84202D095
:1022F000674DA8421DD14FF2FF752A404D894FF618
:10230000FF7606EA05252A434FF6FF352A408D88D9
:1023100006EA05252A4346F6FF752B4045F6FF756C
:102320002B408D8906EA05152B43CD8906EA051554
:102330002B4383808483028470BD70B50024002207
:102340000023058C4EF6FF7635400584028C838889
:10235000848B48F6FF752C400D884FF6FF7606EA11
:1023600005252C434DF6FF752A400D8906EA0535F3
:102370002A434D8806EA05352A43CD88A0F8405007
:10238000424DA84202D0424DA84207D1C3F30D03EB
:102390008D894FF6FF7606EA85152B43838084836B
:1023A000028470BD828B4FF2FF331A408283828B8E
:1023B0004FF6FF7303EA01231A4382837047F0B597
:1023C0000C461546002100220026078C4EF6FF7CA5
:1023D00007EA0C070784818B028C4FF6FF7707EA28
:1023E000043640F6FF4739404FF6FF7707EA0527E6
:1023F0004FF6FF7C0CEA033C47EA0C0739434DF6E5
:10240000FF773A4046F480573A4381830284F0BD17
:10241000828B4FF6F3731A408283828B0A43828346
:102420007047F0B50C461546002100220026078CA7
:102430004FF6FF6C07EA0C070784818B028C4FF67E
:10244000FF7707EA04264FF60C7739404FF6FF77FF
:1024500007EA03172F4339434FF6FF573A4046F434
:1024600080773A4381830284F0BD028B4FF2FF33C1
:102470001A400283028B4FF6FF7303EA01231A43CB
:10248000028370470010004000FCFFBF002C014099
:1024900000340140F0B50C4615460021002200260C
:1024A000078C4FF6EF7C07EA0C070784018B028C40
:1024B0004FF6FF7707EA041640F6FF4739404FF61C
:1024C000FF7707EA033739434FF6FF7707EA052717
:1024D00039434FF6DF773A4046F010073A4301831D
:1024E0000284F0BD028B4FF6F3731A400283028B15
:1024F0000A4302837047F0B50C46154600210022BE
:10250000068C4FF6FE773E400684018B028C4FF618
:102510000C7631407E1C06EA03162E4331437E1EA4
:10252000324044F00106324301830284F0BD70B5AD
:1025300005460C46208850B92389A2886188284620
:10254000FFF7D9FFE1882846FFF7CCFF25E0208878
:1025500004280AD12389A28861882846FFF79AFFB8
:10256000E1882846FFF781FF17E0208808280AD174
:102570002389A28861882846FFF753FFE18828460F
:10258000FFF746FF09E02389A28861882846FFF704
:1025900016FFE1882846FFF705FF70BD2DE9F041E1
:1025A00005460C4600260127608808B9022600E08F
:1025B0000026A088012801D1022700E001272088F9
:1025C000A0B92389A28861882846FFF794FFE18893
:1025D0002846FFF787FF23893A4631462846FFF70A
:1025E00059FFE1882846FFF740FF13E02389A288BE
:1025F00061882846FFF74EFFE1882846FFF735FF40
:1026000023893A4631462846FFF775FFE188284678
:10261000FFF768FFBDE8F0810A884B881A438B8872
:102620001A43CB881A430B891A434B891A438B8967
:102630001A43A0F8442070474FF6FF7181800021B3
:102640000180C1804180017270470021018041807A
:102650008180C180018141818181C18170470021D8
:1026600001804180012181800021C180018170476A
:102670000021018041808180C1800181418181816F
:10268000704721B1028842F00102028004E0028812
:1026900040F2FE331A400280704731B1B0F8442056
:1026A00042F40042A0F8442005E0B0F84420C2F310
:1026B0000E02A0F8442070471AB183890B4383812E
:1026C00002E083898B43838170478182704741EAAE
:1026D0000203A0F8483070471AB183890B43838105
:1026E00002E083898B438381704701894FF6F8723A
:1026F0001140018170470A46002101894FF68F730E
:10270000194011430181704730B504460D462946F2
:102710002046FFF7F0FF208940F00700208130BD00
:102720002DE9F04104460D4616461F46602D06D1A0
:102730003B46012231462046FFF7ACFE05E03B4612
:10274000012231462046FFF7D6FE29462046FFF7F4
:10275000D2FF208940F007002081BDE8F08170B5EC
:102760000C4600210189C9B244EA02054FF6FF7602
:1027700006EA032635432943018170BD2DE9F04166
:1027800005460E4617469846002443463A463146CB
:102790002846FFF7E4FF2C894FF6F870044044F018
:1027A00007044FF68F70044044F070042C81BDE89C
:1027B000F081F0B504460D4616461F463B463246AC
:1027C00029462046FFF7CBFF208940F48040208136
:1027D000F0BD0185828270470A460021018840F2DF
:1027E0008F331940114301807047F0B50C461546F0
:1027F0001E460021002200230189028B038C4FF624
:10280000F877394021434FF6FC473A4040F2011730
:102810003A434FF6DD773B404FF6FF7707EA06175E
:102820002F433B43018102830384F0BD0A4600210C
:10283000018B4FF68F7319401143018370470A468D
:102840000021018B48F6FF7319404FF6FF7303EA2E
:1028500002231943018370470A460021818B4FF6FA
:102860008F7319401143818370470A460021818B81
:1028700048F6FF7319404FF6FF7303EA022319432A
:102880008183704721B1028842F08002028004E017
:10289000028840F27F331A400280704721B182885B
:1028A00042F00402828004E082884FF6FB731A40F3
:1028B0008280704721B1828842F00802828004E061
:1028C00082884FF6F7731A408280704721B1828860
:1028D00042F00102828004E082884FF6FE731A40C3
:1028E000828070470A460021018B4FF6F77319402A
:1028F0001143018370470A460021018B4FF2FF7399
:1029000019404FF6FF7303EA02231943018370470E
:102910000A460021818B4FF6F773194011438183DA
:1029200070470A460021818B4FF2FF7319404FF622
:10293000FF7303EA02231943818370470A4600218B
:10294000018B4FF6FB7319401143018370470A4610
:102950000021018B4FF6FF3319404FF6FF7303EA56
:1029600002231943018370470A460021818B4FF6E9
:10297000FB7319401143818370470A460021818B04
:102980004FF6FF3319404FF6FF7303EA0223194352
:10299000818370470A460021018B4FF67F731940EF
:1029A0001143018370470A460021018BC1F30E01D8
:1029B0004FF6FF7303EA02231943018370470A4667
:1029C0000021818B4FF67F7319401143818370473B
:1029D0000A460021818BC1F30E014FF6FF7303EA13
:1029E00002231943818370470A460021018C4FF668
:1029F000FD7319401143018470470A460021018C80
:102A00004FF6F77319401143018470470A460021BD
:102A1000018C4FF6DF7319404FF6FF7303EA021380
:102A20001943018470470A460021018C4FF67F73D9
:102A300019404FF6FF7303EA0213194301847047EC
:102A40000A460021018C4FF6FF5319404FF6FF73E1
:102A500003EA02231943018470470A460021018CCE
:102A60004FF2FF7319404FF6FF7303EA0223194335
:102A7000018470470A460021018C4DF6FF7319400E
:102A80004FF6FF7303EA023319430184704710B510
:102A9000038C01248C40A3430384038C02FA01F4C9
:102AA000A4B22343038410BD10B5038C04248C40CE
:102AB000A3430384038C02FA01F4A4B223430384E6
:102AC00010BD30B5038C01248C40A343038409B1AD
:102AD000082918D100F1180303EB61031B684FF6B6
:102AE0008F74234000F1180404EB6104236000F1AB
:102AF000180303EB61031B68134300F1180404EB94
:102B0000610423601FE00B1FC3F34E0400F11803A0
:102B10001B5948F6FF7423400C1FC4F34E0500F107
:102B2000180463510B1FC3F34E0400F118031B5923
:102B30004FF6FF7404EA022423430C1FC4F34E052E
:102B400000F11804635130BD21B1028842F0020245
:102B5000028004E0028840F2FD331A400280704790
:102B600021B1028842F00402028004E0028840F2AF
:102B7000FB331A400280704721B1828842F0800204
:102B8000828004E082884FF67F731A40828070470B
:102B9000028840F2F7331A40028002880A4302801A
:102BA000704782884FF68F731A40828082880A436A
:102BB0008280704702894FF6F8731A4002810289B9
:102BC0000A430281704702894FF67F731A400281DF
:102BD00002890A430281704781847047818570476A
:102BE000818670470187704781877047A0F8401041
:102BF00070470288D2B2028002880A43028070477E
:102C00000146888E70470146088F70470146888FBD
:102C100070470146B1F8400070470146888C704704
:102C20000146088D704702460020138A0B400BB105
:102C3000012000E000207047CA430282704730B58F
:102C40000246002000230024158A05EA0103958925
:102C500005EA010413B10CB1012000E0002030BDF1
:102C6000CA4302827047D2B201E000F8012B491E2C
:102C7000FBD270470022F6E710B513460A46044619
:102C80001946FFF7F0FF204610BD30B50B46014650
:102C900000202022012409E021FA02F59D4205D3FB
:102CA00003FA02F5491B04FA02F52844151EA2F1A5
:102CB0000102F1DC30BD0000064C074D06E0E06883
:102CC00040F0010394E8070098471034AC42F6D373
:102CD000FDF732FAE02E0008002F00080FB4054B74
:102CE00010B503A9044A029800F02CF810BC5DF856
:102CF00014FB0000F50300082C0000200FB4084B63
:102D000010B504A902AA039800F01CF8044602A911
:102D1000002000F0C1F8204610BC5DF814FB000054
:102D2000992E000802E008C8121F08C1002AFAD133
:102D300070477047002001E001C1121F002AFBD13B
:102D4000704700002DE9FF4F89B09B4604460025DF
:102D500006E025280BD05A460B999047641C6D1C41
:102D600020780028F5D10DB02846BDE8F08F002767
:102D7000B8460122474900E0074314F8013F203BD1
:102D800002FA03F00842F7D120782E2819D114F85E
:102D9000010F47F004072A280ED06FF02F02207889
:102DA000A0F1300109290CD808EB880102EB4101A0
:102DB00000EB0108641CF2E70A98641C50F8048BCD
:102DC0000A9020780028CED0642808D0692806D040
:102DD00075281ED05A460B9990476D1C58E00A99E9
:102DE0004FF00A0901C90A91002802DA40422D2158
:102DF00002E0390504D52B218DF82010012103E0D4
:102E0000F90704D02021F7E78A4608AE0DE000213B
:102E1000FAE70A994FF00A0901C90A91F7E749460A
:102E2000FFF733FF303106F8011D0028F7D1ADEB75
:102E3000060000F12009780701D44FF00108C845C9
:102E400002DDA8EB090000E000208046002706E034
:102E500008A85A46C05D0B9990476D1C7F1C5745CA
:102E6000F6DB04E030205A460B9990476D1CB8F110
:102E70000001A8F10108F5DC05E016F8010B5A463F
:102E80000B9990476D1CB9F10001A9F10109F4DC1F
:102E9000641C65E7092801000A68531C0B60107068
:102EA00070476C0680070008FF09FC09F909F6095C
:102EB0000708090A0B0C00010203040506070809AC
:102EC0003132333435363738393041424344454660
:102ED0004748494A4B000000535831323738000008
:102EE000002F00080000002030000000242D000802
:102EF000302F000830000020C0020000342D0008F0
:102F00000000000000000000D82E000800000000B3
:102F100000000000000000000000000102030401A6
:102F20000203040607080902040608000000000066
:0400000508000131BD
:00000001FF
